:020000040800F2
:100000001004002001010008510900084D090008F2
:100010004F0900086D010008E10900080000000018
:1000200000000000000000000000000013010008B4
:100030006F010008000000001701000853090008C4
:100040001B0100081B0100081B0100081B01000820
:100050001B0100081B0100081B0100081B01000810
:100060001B0100081B0100081B0100081B01000800
:100070001B0100081B0100081B0100081B010008F0
:100080001B0100081B0100081B0100081B010008E0
:100090001B0100081B0100081B0100081B010008D0
:1000A0001B0100081B0100081B0100081B010008C0
:1000B0001B0100081B0100081B0100081B010008B0
:1000C0001B0100081B0100081B0100081B010008A0
:1000D0001B0100081B0100081B0100081B01000890
:1000E0001B0100081B0100081B010008DFF80CD0F1
:1000F00000F02AF800480047210A000810040020F8
:100100000648804706480047FEE7FEE7FEE7FEE7B1
:10011000FEE7FEE7FEE7FEE7FEE7FEE799090008D7
:10012000ED000008D2B201E000F8012B491EFBD21D
:1001300070470022F6E710B513460A4604461946F2
:10014000FFF7F0FF204610BD064C074D06E0E068C3
:1001500040F0010394E8070098471034AC42F6D30E
:10016000FFF7C8FF940A0008B40A0008FEE77047CA
:100170002DE9F84FDFF8A491002409F1040A0AF1EF
:10018000040B23464FF00F080BF1040EBEE00127CD
:10019000A7403A40BA4272D1DFF884C14D68A5EB5E
:1001A0000C0665452BD00DDC032D34D005DC35B3B2
:1001B000012D19D0022D2FD11BE0112D16D0122D9B
:1001C0002AD119E0B6F5881F19D006DCB6F5803FB4
:1001D00015D0B6F5801F1FD111E0B6F5001F0ED067
:1001E000B6F5041F18D10AE0CB6815E0CB681B1DDB
:1001F00012E0CB6808330FE0CB680C330CE08B685F
:100200002BB1012B4FF0080303D0476104E0042316
:1002100002E0076100E00023FF2A01D8064601E062
:1002200000F104064FEA840501D9A5F120053768DD
:1002300008FA05FC27EA0C0703FA05F547EA050763
:1002400037604D68ED0060D5364DAE6946F0010669
:10025000AE61AD6924F0030605F001050095324D4D
:100260007719BE68A5072D0F08FA05FC26EA0C06CB
:10027000DFF8B8C0604503D14FF0000C17E044E050
:10028000DFF8ACC0604502D14FF0010C0FE0DFF8A1
:10029000A4C0604502D14FF0020C08E0DFF898C01E
:1002A000604502D14FF0030C01E04FF0040C0CFA52
:1002B00005FC4CEA060CC7F808C04D68D9F8006088
:1002C000ED034D4601D5164300E096432E604D6880
:1002D000DAF80060AD03554601D5164300E09643B9
:1002E0002E604D68DBF80060ED025D4601D51643D7
:1002F00000E096432E604D68DEF80060AD02754662
:1003000001D5164300E096432E60641C0A6832FA59
:1003100004F57FF43CAFBDE8F88F00000004014015
:1003200000001110001002400000014000080140D0
:10033000000C014000100140001401400AB10161AD
:1003400070470904FBE7000001488068704700001F
:1003500000000020024881680278114481607047E3
:1003600000000020074810B5016841F0100101604D
:10037000032000F067F8002000F006F800F024F8F1
:10038000002010BD0020024070B50D4D04464FF412
:100390007A712878B1FBF0F00A490968B1FBF0F0F6
:1003A00000F0C0FA48B9102C07D200222146501E96
:1003B00000F028F800206C6070BD012070BD0000C6
:1003C000000000200C0000200C4808B5816941F0B5
:1003D00001018161816901F001010091C16941F070
:1003E0008051C161C069064900F0805000904868A2
:1003F00020F0E06040F00070486008BD001002404E
:1004000000000140F0B40E4B1B68C3F30223C3F19C
:100410000704042C00D904241D1D072D01D200233C
:1004200000E0DB1E012606FA04F56D1E0D409D401E
:100430009E40761E164045EA0601F0BC00F0D1BA97
:100440000CED00E0064A00F0070110684FF6FF03CC
:10045000184040EA0120034908431060704700003B
:100460000CED00E00000FA052DE9F0470D46040010
:1004700067D0DFF81881D8F8000000F00700A84224
:100480000CD2D8F8001021F007012943C8F8001059
:10049000D8F8000000F00700A84252D120683C4E76
:1004A000810712D5400703D5706840F4E0607060A2
:1004B0002078000703D5706840F460507060706861
:1004C000A16820F0F000084370602078C00727D0B2
:1004D0006068012810D03168022810D089070029EF
:1004E0002FDA716821F0030101437160FFF72CFFDF
:1004F000074641F288390CE031688903EFE789014A
:10050000EDE7FFF721FFC11B494502D90320BDE8F4
:10051000F0877068616800F00C00B0EB810FF0D1DB
:10052000D8F80010404601F00701A9420BD9016834
:1005300021F0070129430160006800F00700A8428C
:1005400001D00120E3E72078400705D57068E16815
:1005500020F4E060084370602078000706D57068DA
:10056000216920F4605040EAC100706000F018F882
:100570007168084AC1F30311515CC840064908601C
:1005800006480068FFF700FF0020C0E70020024097
:1005900000100240840A00080C0000200400002023
:1005A00012A085B00FC88DE80F0014A0144B00688E
:1005B00004905968134801F00C02042A10D0082A4C
:1005C0000ED1C1F38342C9031DF802000AD5596850
:1005D00004AAC1F34041515C0A4A5043B0FBF1F018
:1005E00005B0704708494843FAE7000002030405D4
:1005F000060708090A0B0C0D0E0F1010010200006F
:100600000010024000127A0000093D002DE9F84F69
:1006100004006FD02078BE4DC00747D06868C0F393
:100620008100012807D06868C0F38100022809D141
:100630006868C00306D52868800337D5606800283D
:10064000E7D033E06068B0F5803F0BD010B1B0F573
:10065000A02F11D0286820F480302860286820F46A
:10066000802002E0286840F480302860606888B10B
:10067000FFF76AFE064609E0286840F480202860FB
:10068000F0E7FFF761FE801B642873D828688003B9
:10069000F7D50BE0FFF758FE064604E0FFF754FEDF
:1006A000801B6428F1D828688003F7D42078DFF80D
:1006B000648280074FF0010A4FF0000939D568685D
:1006C00010F00C0F07D06868C0F38100022809D130
:1006D0006868C00306D42868800714D520690128FB
:1006E00008D110E02069B0B1C8F800A0FFF72CFED7
:1006F000064605E007E1FFF727FE801B0228C4D865
:1007000028688007F7D52868616920F0F80040EA7A
:10071000C10028600DE0C8F80090FFF715FE0646FE
:1007200004E0FFF711FE801B022823D82868800709
:10073000F7D4207800072CD57748A169D9B1C0F843
:1007400000A0FFF701FE064604E0FFF7FDFD801B59
:1007500002280FD8686A8007F7D570484FF4FA511D
:100760000068B0FBF1F0009000BF0098411E0091BE
:10077000FAD20EE07CE0C0F80090FFF7E5FD0646F7
:1007800004E0FFF7E1FD801B022871D8686A80074A
:10079000F7D4207840075BD5E8690027C00008D46B
:1007A000E86940F08050E861E869012700F0805076
:1007B00000905B480168C90511D40168834641F483
:1007C00080710160FFF7C0FD064604E0FFF7BCFD45
:1007D000801B64284CD8DBF80000C005F6D5E06823
:1007E00001280AD008B1052813D0286A20F001009A
:1007F0002862286A20F0040002E0286A40F0010024
:100800002862E06841F2883B88B1FFF79DFD06460B
:1008100009E0286A40F004002862EEE7FFF794FD43
:10082000811B59455BD8286A8007F7D50BE0FFF795
:100830008BFD064604E0FFF787FD811B59454ED826
:10084000286A8007F7D41FB1E86920F08050E8617A
:10085000E069A8B36968C1F38101022946D0022882
:10086000484606D0C8F86000FFF76EFD044639E040
:1008700035E04746C8F86000FFF766FD064604E02D
:10088000FFF762FD801B022829D828688001F7D471
:10089000206AB0F5803F05D16868A16820F4003077
:1008A00008436860D4E908010843696821F47411B9
:1008B00008436860C7F860A0FFF746FD044605E0FE
:1008C00023E0FFF741FD001B022808D828688001BB
:1008D000F7D51AE0FFF738FD001B022802D90320E4
:1008E000BDE8F88F28688001F4D40EE00128F7D025
:1008F0006868226A00F48031914204D1616A00F490
:100900007010884201D00120EAE70020E8E70000EB
:100910000010024000004242800442420C000020CD
:100920000070004010B5401EB0F1807F01D301205F
:1009300010BD4FF0E02460610F21601700F051F806
:100940000020A06107202061002010BDFEE7FEE727
:100950007047FFF7FFBC10B590B028216846FFF73D
:10096000E8FB14210AA8FFF7E4FB02200090012015
:10097000049010200024059007946846FFF746FE77
:100980000F20CDE90A040C940D9400210AA80E94BE
:10099000FFF76AFD10B010BD0D48016841F001017C
:1009A000016041680B4A1140416001680A4A1140E8
:1009B0000160016821F480210160416821F4FE0199
:1009C00041604FF41F0181600449C0030860704713
:1009D000001002400000FFF8FFFFF6FE08ED00E007
:1009E000FEE70907090E002804DB00F1E02080F88B
:1009F0000014704700F00F0000F1E02080F8141D93
:100A0000704702E008C8121F08C1002AFAD17047D7
:100A10007047002001E001C1121F002AFBD170477E
:100A200086B0FFF79FFCFFF796FF00241348009461
:100A3000019402940394816941F008018161816904
:100A400001F008010491816941F00401816180692C
:100A50000B4E00F004004FF440550490002229464C
:100A60003046FFF76BFC01200095CDE90104022020
:100A7000039069463046FFF77BFBFEE7001002401B
:100A8000000C01400000000000000000010203040F
:100A900006070809B40A0008000000201000000042
:100AA000020A0008C40A0008100000200004000028
:100AB000120A000801000000100000000000000001
:040AC0000024F4001A
:04000005080000ED02
:00000001FF
